:1000000000800010CD340000FD340000FF340000FB
:100010000135000003350000053500000000000038
:100020000000000000000000000000000735000094
:1000300009350000000000000B3500000D35000000
:100040000F3500000F3500000F3500000F350000A0
:100050000F3500000F3500000F3500000F35000090
:100060000F3500000F3500000F3500000F35000080
:100070000F3500000F3500000F3500000F35000070
:100080000F3500000F3500000F3500000F35000060
:100090000F3500000F3500000F3500000F35000050
:1000A0000F3500000F3500000F3500000F35000040
:1000B0000F3500000F3500000F3500000F35000030
:1000C0000F3500000F3500000F35000010B5054C4E
:1000D000237833B9044B13B10448AFF300800123F4
:1000E000237010BDD00100100000000064C80000A3
:1000F000084B10B51BB108480849AFF30080084809
:10010000036803B910BD074B002BFBD0BDE81040BE
:10011000184700BF0000000064C80000D4010010B0
:10012000D001001000000000154B002B08BF134B3E
:100130009D46A3F5803A00218B460F461348144A8A
:10014000121A05F090F90F4B002B00D098470E4B78
:10015000002B00D098470020002104000D000D481E
:10016000002802D00C48AFF3008004F0EBFF200021
:10017000290003F075F804F077FC00BF00000800C8
:10018000008000100000000000000000D0010010FE
:1001900094080010000000000000000010B50446A4
:1001A000024B036000F06CFD204610BD08B5000056
:1001B000164B0220D3F8C420154942F04002C3F880
:1001C000C420D3F8A82142F48052C3F8A821A3F593
:1001D0006423FF2258601A600A6922F0030242F089
:1001E00001020A610A6D22F0030202430A65172226
:1001F000DA6001229861DA6107221A654FF4007211
:100200005861DA6409225A60704700BF00C00F408D
:1002100000C00240044B10F0010F14BF3120302009
:10022000196804F07BBE00BFEC01001038B51C4C0F
:100230001C4D21681C4804F0CFFE2168284604F0BC
:10024000CBFE2168194804F0C7FE2168184804F065
:10025000C3FE2168284604F0BFFE2168154804F05B
:10026000BBFE2168144804F0B7FE2168284604F05C
:10027000B3FE2168114804F0AFFE2168104804F075
:10028000ABFE21680F4804F0A7FE21680E4804F079
:10029000A3FE21680D48BDE8384004F09DBE00BFB4
:1002A000EC0100109DB4000004B400000EB4000086
:1002B00019B4000033B400003EB400005CB4000088
:1002C0006EB4000089B40000A4B40000B4B400000F
:1002D00073B540F2FF112B4802F09EFF2A492B48CC
:1002E00004F0DCFD2A4D2B4E2860FFF79FFF2968A4
:1002F000294804F071FE337800248DF807309DF80A
:100300000700FFF787FF2968244804F065FE296885
:100310000D2004F003FE2248296804F05DFE9DF8DC
:100320000720335D9A420ED01E49620028688DF87E
:10033000073004F0BDFD9DF80700FFF76BFF17487D
:10034000296804F049FE184B9DF80720E35C9A42A7
:100350000FD062001349013228688DF8073004F08D
:10036000A7FD9DF80700FFF755FF0C48296804F02A
:1003700033FE0134B4F5804FD1D1286804F0DAFBA4
:1003800002B070BDC6B40000E2B40000CFB40000FB
:10039000EC01001000000820E4B40000F0B40000FC
:1003A0009DB40000F3B4000000C0072008B5FFF7BB
:1003B000FFFE0023064A0749107DC854117D064AF6
:1003C000D1540133B3F5804FF4D1FFF781FFFEE73D
:1003D00000C009200000082000C0072010B5044616
:1003E000FFF7DCFE204604F080FA204610BD000036
:1003F00013B5094B094C0093094B20460193094959
:10040000094A0A4B00F04CF820460949094A02B053
:10041000BDE8104004F074BA06C00920F0010010D5
:10042000FAB4000009C0092008C0092007C009204B
:100430009D010000C80000104FF0FF307047002001
:1004400070470020704700F5127003C8704770B500
:100450000024064620460131891A8C420CD0A5188A
:10046000A6EBD503DB7B05F007052B4103F0010369
:10047000A34018430134F0E770BD00000FB407B586
:10048000064B04AA1B6852F8041BD868019205F0B9
:100490000DFC03B05DF804EB04B07047440100109C
:1004A000F7B504461D460F461646099900F0CAFBEB
:1004B0000F4B394623604FF0FF33009332462B46F3
:1004C00004F5147004F5197503F02CFD1822284664
:1004D000002104F0C8FF2846089903F09DFD20463E
:1004E000D4F87032D4F868221A6003B0F0BD00BFAF
:1004F00008B50000F8B51646D0F87432D0F8682276
:1005000000F514741A6041F040010546204603F0DE
:100510004FFD3116204603F04BFD3114204603F009
:1005200047FD3112204603F043FD3146204603F0DB
:100530003FFD2046952103F03BFD41F288372046E0
:10054000FF2103F035FD030606460AD4D5F87032C4
:10055000D5F8682220461A60FF2103F029FD3046B5
:10056000F8BD013FEBD1D5F87032D5F868222046AE
:100570001A60FF2103F01CFD4FF0FF30F8BD0000B2
:1005800038B5054641F28834372100222846FFF766
:10059000B1FF284629210022FFF7ACFF28B94FF40C
:1005A0000073C5F87C32012038BD013CECD1024813
:1005B000FFF764FF204638BD40B5000070B5164611
:1005C000D0F87432D0F8682200F514741A6041F043
:1005D00040010546204603F0EBFC3116204603F0AF
:1005E000E7FC3114204603F0E3FC3112204603F00F
:1005F000DFFC3146204603F0DBFC2046952103F06A
:10060000D7FC41F288362046FF2103F0D1FC0306D7
:100610000CD5013EF7D1D5F87032D5F868222046C6
:100620001A60FF2103F0C4FC4FF0FF3070BDF8B535
:10063000D0F86822D0F8743200F514741A607A2168
:100640000546204603F0B4FC0021204603F0B0FC30
:100650000021204603F0ACFC0021204603F0A8FC5A
:100660000021204603F0A4FC2046952103F0A0FCC5
:1006700041F288372046FF2103F09AFC0306064624
:100680001AD42046FF2103F093FC2046FF2103F0FB
:100690008FFC2046FF2103F08BFC2046FF2103F056
:1006A00087FCD5F87032D5F8682220461A60FF2101
:1006B00003F07EFC3046F8BD013FDBD1D5F8703247
:1006C000D5F8682220461A60FF2103F071FC4FF034
:1006D000FF30F8BD38B5054641F28834322003F0CA
:1006E00097FD2846FFF7A3FF372100222846FFF792
:1006F00001FF284629214FF08042FFF7FBFE38B961
:100700002846FFF794FF0123C5F87C32022038BD4C
:10071000013CE3D10248FFF7B1FE204638BD00BFDF
:100720005FB50000F7B5D0F87432D0F8682200F554
:1007300014741A6048210546204603F039FC002154
:10074000204603F035FC0021204603F031FC012156
:10075000204603F02DFCAA21204603F029FC204668
:10076000872103F025FC00262046FF2103F020FC12
:10077000030618D48DF8000004272046FF2103F05B
:1007800017FC02AB3344013F03F8080CF5D1D5F850
:100790007032D5F8682220461A60FF2103F008FC69
:1007A0009DF800000EE0084B01369E42DCD1D5F8E2
:1007B0007032D5F8682220461A60FF2103F0F8FB5A
:1007C0004FF0FF3003B0F0BD404B4C0070B5044615
:1007D00000F514763046174903F0E2FBD4F8703286
:1007E000D4F8682210251A603046FF2103F0E0FBA0
:1007F000013DF9D1204629462A46FFF77BFE012814
:1008000001D00D4811E02046FFF78CFF012804D1EC
:100810002046BDE87040FFF75DBF052804D12046A3
:10082000BDE87040FFF7ACBE0448FFF727FE00208C
:1008300070BD00BFA08601007EB50000B6B5000007
:10084000F8B506460C461746D0F87432D0F8682240
:100850001A6006F514752846FF2103F0A9FBFE284F
:10086000F7D12744BC4228464FF0FF0104D003F0E3
:100870009FFB04F8010BF5E703F09AFB2846FF21E4
:1008800003F096FBD6F87032D6F8682228461A6034
:10089000FF2103F08DFB0020F8BDD0F87C3270B54D
:1008A0005A430E4611210546FFF724FE044630B98F
:1008B000284631464FF40072FFF7C2FF00E00124E2
:1008C000204670BDF8B5D0F874321746D0F86822CB
:1008D00000F514740E4605461A602046FE2103F00A
:1008E00067FB3744BE42204604D016F8011B03F0D4
:1008F0005FFBF7E7FF2103F05BFBFF21204603F0DE
:1009000057FB2046FF2103F053FB00F01F00052892
:100910000AD0D5F87032D5F8682220461A60FF2137
:1009200003F046FB0120F8BD2046FF2103F040FB09
:100930000028F9D0D5F87032D5F8682220461A6020
:10094000FF2103F035FB0020F8BDD0F87C3270B5F4
:100950005A430E4618210546FFF7CCFD044630B930
:10096000284631464FF40072FFF7ACFF00E0012447
:10097000204670BD7FB5092100220546FFF71EFE07
:1009800020B12348FFF77AFD00203DE02846694664
:100990001022FFF755FF044608B11E48F2E76846EB
:1009A0007F217E22FFF753FD58B1012828D1C5F8D9
:1009B0007C023F2168463022FFF749FD013080026A
:1009C00022E04FF40073C5F87C3249213E2268468C
:1009D000FFF73DFD312105462F226846FFF737FD21
:1009E0005321044650226846FFF731FD012303FAE4
:1009F00000F005FB00000234A3405843400A03E026
:100A00000548FFF73BFD2046002104B070BD00BF44
:100A1000EEB5000013B6000039B6000038B5044644
:100A2000FFF7D4FE2046FFF7A5FF04F51273C3E9D4
:100A300000014FF4007220461021FFF75BFD0546D0
:100A400020B10648FFF71AFD012504E004F51470F3
:100A5000034903F0A5FA284638BD00BF52B600008E
:100A600040420F0008B510B103689B699847002009
:100A700008BD00234381704740897047418170471A
:100A8000704710B5044603F030FF204610BD30B566
:100A900089B000F1280405464FF48073043069469C
:100AA0000694079301F00EFEA0B99DF8090090B1DD
:100AB00095F8283063B922460DF109030DF11501AF
:100AC00053F8040B8B4242F8040BF9D11B781370D6
:100AD000204600E0002009B030BD000070B504469B
:100AE0000D460646054B44F8043B0FCD0FC40FCD11
:100AF0000FC42B683046236070BD00BF78B600007D
:100B000000207047002070470020704710B58AB061
:100B100001A801F09FFD48B94FF4947003F0D4FE92
:100B2000044601A9FFF7DAFF204600E000200AB0E2
:100B300010BD08B5084601F04FFE003018BF012077
:100B4000404208BD08B500214FF4007290F8400201
:100B500001F008FF003018BF0120404208BD08B571
:100B6000084601F0DBFD003018BF0120404208BDFF
:100B700030B505461446ADF2A46D0B46D5F84022BB
:100B800086A81F4905F0C0FFA50705D414F0010F82
:100B900014BF0222012200E00322A00505D5610551
:100BA0004CBF42F0080242F0100296A886A901F05C
:100BB00043FA00BB230703D596A8999901F0AEFC30
:100BC0000DF27C4596A94FF40972284604F040FCCA
:100BD0004FF40A7003F078FE04460DF591614FF46E
:100BE0000672684604F034FC95E80E00204600F0DA
:100BF000B9F8204600E000200DF2A46D30BD00BF22
:100C0000D8B6000007B501A803F0C0FA01A804F0A7
:100C1000BFFAC1688268090441EAC22142680368D8
:100C200041EA4211022293FBF2F341EA03024369D3
:100C30000069503B42EA4363013043EA405003B04D
:100C40005DF804FB38B504460D4603F04FF9094B37
:100C50002360094B186820B10848294603F028FA98
:100C600006E0C4F8400204F110011C6001F0D4F960
:100C7000204638BDA0B6000070040010DFB60000AA
:100C8000084B10B50360084B04461A68824204D131
:100C900000200146186001F0BFF9204603F00EF96C
:100CA000204610BDA0B60000700400100020704760
:100CB0000069704738B50446043001F028FC054649
:100CC0001CB1236820461B6A9847284638BD00009F
:100CD00010B50446024B036002F04AF9204610BDED
:100CE00020B7000010B50446FFF7F2FF204603F0DE
:100CF000FCFD204610BD08B5043001F0B8FB003003
:100D000018BF0120404208BD022A10B5044601D197
:100D1000036902E0012A01D1C3681944201D01F0D2
:100D2000FDFB08B9E06810BD4FF0FF3010BD07B5FE
:100D3000043001AB01F01EFA08B9019801E04FF050
:100D4000FF3003B05DF804FB07B5043001AB01F0E0
:100D5000C3FA08B9019801E04FF0FF3003B05DF825
:100D600004FB000084B038B5054605AC84E80E00ED
:100D7000064B214640F8043B4FF4097204F068FB2F
:100D80002846BDE8384004B0704700BF20B70000D7
:100D900008B5044B53F8200003681B6A9847C0B29B
:100DA00008BD00BF7004001008B5044B53F82000C4
:100DB00003685B6A9847C0B208BD00BF70040010AA
:100DC0002DE9F04180460D4616461F461446BB19D4
:100DD0009C420ED20A4B294653F82800224603684B
:100DE000D3F828C00023E04730B905F50075013479
:100DF000EDE70020BDE8F0810420BDE8F08100BFF0
:100E0000700400102DE9F04180460D4616461F463D
:100E10001446BB199C420ED20A4B294653F82800AF
:100E200022460368D3F82CC00023E04730B905F50B
:100E300000750134EDE70020BDE8F0810420BDE835
:100E4000F08100BF70040010012938B50C4615462A
:100E500010D004D3032918D10123136013E00E4BE3
:100E600053F8200098B103681B6B9847003018BFF7
:100E7000012038BD084B53F8200040B103685B6B7C
:100E8000984730B12860002038BD042038BD0320C9
:100E900038BD204638BD00BF7004001001380A4438
:100EA000914204D011F8013B00F8013FF8E7704788
:100EB0000244904202D000F8011BFAE77047C1F3E8
:100EC00007238176090C01750912C37641757047B5
:100ED00000F10B01002310F8012B02EBC31202EB0F
:100EE0005303884203F0FF03F5D1184670472DE9FC
:100EF000F041C56A04468D420F4602D10020BDE88C
:100F0000F081037913B9002FF8D01FE000F1300809
:100F1000414640782A460123FFF774FF10B10120B3
:100F2000BDE8F081E269236A207113449D42EAD250
:100F3000E678012EE7D9E36960781D4441462A46E8
:100F40000123013EFFF75EFFF6B2F2E7607804F19D
:100F500030013A460123FFF733FF0028DFD1E76273
:100F6000BDE8F08108B5036873B11A7862B1D98819
:100F70008288914208D15878FFF716FF10F0010FD0
:100F800014BF0320002008BD092008BD03692DE916
:100F9000F0410D4601F10906002B4ED04369113195
:100FA0001F7B5C1E14F8012F202A11D0052A08BFD0
:100FB000E52217F0080F06D0A2F1410EBEF1190F7D
:100FC0009CBF2032D2B206F8012B8E42EAD100E05B
:100FD00031461A7A202A18D02E224C1CDE1D01F828
:100FE000042B16F8012F202A0ED017F0100F06D070
:100FF000A2F1410EBEF1190F9CBF2032D2B204F80B
:10100000012B8C42EDD100E021460E46DA7A2A729D
:101010009A7FDC7F120442EA04621C7F22435C7FD9
:1010200042EA04222A605C7E1A7E42EA0422AA80F6
:10103000DA7D9B7D43EA0223EB8000243470AE69A5
:10104000FEB1EB69EBB103690BB9002417E04FF671
:10105000FF73028C9A42F8D0D0F81C80771E38F8C3
:10106000140060B1002101F03BFF0028EDD0EB69D6
:10107000013B9C42E9D2013407F8010FEFE700235E
:101080003355BDE8F08170B500210446FFF72FFF0E
:101090000546002D51D12378032B46D16379002BCF
:1010A00043D004F13006304629464FF40072E56221
:1010B000FFF7FEFE552384F82E32AA2384F82F3240
:1010C000522384F8303084F83130612384F8323090
:1010D00084F817322369412284F8332084F81622D9
:1010E000C3F3072284F8183284F819221A0C1B0E55
:1010F00084F81B32E36884F81A22C3F307227221B2
:1011000084F81C3284F81D221A0C1B0E84F8141269
:1011100084F8151284F81E2284F81F326078314654
:1011200062690123FFF76EFE6571002160780A464F
:10113000FFF78AFE003018BF012070BDCA7E8B7E8B
:10114000032843EA022301BF487D0A7D42EA0022C8
:1011500043EA02431846704710B504460A464078F1
:1011600004F130010123FFF72BFE80BB94F82F22FE
:1011700094F82E3243EA02234AF65522934228D1AC
:1011800094F8683094F869201B0443EA026394F8E9
:101190006620134394F8672043EA02230E4A23F0A3
:1011A0007F43934216D094F8843094F885001B0452
:1011B00043EA006094F88230034394F8830043EAE2
:1011C000002020F07F40801A18BF012010BD0320AE
:1011D00010BD022010BD00BF46415400F8B50368A1
:1011E00016461D78303D092D05D85A783A2A02D185
:1011F0000233036000E0002500230B60002D40F067
:101200003481AF4B1C68002C00F031810C602378D6
:1012100063B16078FFF7C8FDC70707D4002E00F060
:101220002881410740F127810A20F8BD0020207065
:101230006070FFF7ADFDC20700F11F810EB14307DB
:10124000F2D420460021FFF787FF012817D194F838
:10125000F2310BB90D20F8BD94F8F83194F8F9612A
:101260001B0443EA066394F8F6612046334394F87E
:10127000F76143EA06263146FFF76EFF00E00026DD
:10128000032800F0FC800028E4D194F83C2094F876
:101290003B3043EA0223B3F5007FDBD194F847509B
:1012A00094F8463053EA05250DD194F8563094F859
:1012B00057501B0443EA056394F854502B4394F8A9
:1012C000555043EA052594F840C0E5610CF1FF3321
:1012D000012B84F803C0BDD894F83D30A370002BD7
:1012E000B8D05A1E1A42B5D194F842E094F8412081
:1012F00042EA0E2E1EF00F0FA4F808E0AAD194F8CF
:10130000442094F8431051EA02210DD194F8521070
:1013100094F85320090494F8500041EA026194F8CB
:101320005120014341EA022194F83F0094F83E2005
:1013300052EA00228ED00CFB05FC02EB1E1060442A
:10134000814287D3091AB1FBF3F3002B82D040F618
:10135000F5718B4206D94FF6F577BB428CBF032758
:10136000022700E00127023330443244032FA361F7
:10137000A062226214D1BEF1000F7FF46BAF94F82B
:101380005E2094F85F10120442EA016294F85C1047
:101390009B000A4394F85D1042EA012262620FE06A
:1013A000BEF1000F3FF456AF6244022F62624FEA73
:1013B00043020FBF1346D21803F0010303EB52039D
:1013C00003F2FF13B5EB532FFFF444AF4FF0FF339D
:1013D0002361032F4FF00003E3603BD1637194F866
:1013E000612094F86030607843EA022232446261FE
:1013F00004F130010123FFF7E3FC58BB94F82F22DE
:1014000094F82E3243EA02234AF65522934221D120
:1014100094F8323094F833201B0443EA026394F8C2
:101420003020134394F8312043EA0223254A9342A3
:1014300010D194F8163294F817221B0443EA026381
:1014400094F81422134394F8152243EA02231E4A07
:10145000934216D01D4A00201388277001339BB297
:1014600020711380E380E062F8BD0B20F8BD0C20F2
:10147000F8BD3046F8BD2846F8BD0320F8BD012070
:10148000F8BD94F81E3294F81F221B0443EA02634D
:1014900094F81C22134394F81D2243EA0223E360CC
:1014A00094F81A3294F81B221B0443EA026394F85E
:1014B0001822134394F8192243EA02232361C9E74F
:1014C000780400105252614172724161740400103C
:1014D00083690239023B99423DBF8278836A02FBED
:1014E0000130002070470129F8B506460C465AD94C
:1014F0008369994257D20378022B27D0032B37D028
:10150000012B52D101EB5107016A01EB5721FFF783
:10151000EEFC002849D1316AC7F308030137334490
:10152000304601EB572193F83050FFF7E0FC0028DC
:101530003BD1C7F308073E4496F83000E30745EA7D
:1015400000204CBF0009C0F30B00F8BD016A01EB9D
:101550001421FFF7CCFC40BB640004F4FF74331982
:10156000344493F8303094F8310043EA0020F8BD59
:10157000016A01EBD411FFF7BAFCB0B9A30003F480
:10158000FE7404F130033344D8789A7800065B780F
:1015900040EA0240344440EA032094F830301843D3
:1015A00020F07040F8BD0120F8BD4FF0FF30F8BDCD
:1015B00070B504460D46E1808168012901D1022001
:1015C00070BD03689A699142F9D271B91A78032AF9
:1015D00001D1596A49B90022E2601A89AA42EED9BA
:1015E0005B6A03EB1513236119E09E783601B5425F
:1015F0000ED32068FFF777FF431C014618D001285F
:10160000DDD923689B699842D9D2AD1BADB2EEE714
:10161000E1602068FFF75CFF00EB15102061236894
:1016200005F00F05303303EB45156561002070BDF3
:10163000012070BD0129F8B506460C46154670D943
:10164000836999426DD20378022B39D0032B48D09D
:10165000012B62D101EB5107016A01EB5721FFF722
:1016600046FC00285AD1C7F3080314F001043344A0
:1016700018BF93F83010EAB21EBF01F00F0141EA23
:101680000212D2B2316A83F830200137012333715C
:10169000304601EB5721FFF72AFC00283ED1C7F363
:1016A0000807374414B1C5F3071506E097F8303042
:1016B000C5F3032523F00F031D4387F830502DE0B9
:1016C000016A01EB1421FFF712FC38BB640004F43B
:1016D000FF74331983F83050C5F3072583F8315070
:1016E0001CE0016A01EBD411FFF701FCB0B9A400C2
:1016F00004F4FE7404F130033344DA7834441206FF
:1017000002F070421543C5F3072284F830505A7036
:101710002A0C2D0E9A70DD7000E002200123337137
:10172000F8BD0220F8BDF8B505460F4631B9C668C8
:101730006EB183699E4228BF012609E0FFF7D3FE00
:1017400001283CD9AB6998423AD33E4600E00126D5
:101750003446AB6901349C4204D3012E01D80020E9
:10176000F8BD022428462146FFF7BDFE30B1411CDA
:1017700026D0012824D0B442EBD1F0E728462146F8
:101780006FF07042FFF756FF98B947B92B69EC60CC
:101790005A1C0CD0013B2B6101236B7107E02846DA
:1017A00039462246FFF746FF0028EFD001E02046E9
:1017B000F8BD01280CBF4FF0FF300120F8BD01201B
:1017C000F8BD2DE9F843C58804460135ADB2884619
:1017D00015B90420BDE8F8830369002BF9D015F092
:1017E0000F075FD1C16801330361006819B903892C
:1017F000AB42EED956E08378013B13EA151351D181
:10180000FFF771FE0128064602D80220BDE8F883E2
:10181000421C02D10120BDE8F883206883699E4202
:101820003AD3B8F1000FD4D0E168FFF77CFF064649
:10183000002840D00128E8D0431CEBD020680021CC
:10184000FFF755FB80460028E4D120684146303040
:101850004FF40072FFF72CFBD4F800903146484655
:10186000FFF736FEC9F82C0023685FFA88F19A78F2
:101870008A420ED901221A7120680021FFF737FB36
:1018800008F101080028C5D12268D36A0133D36268
:10189000EAE7DA6A521ADA62E66020683146FFF750
:1018A00017FE20612368E580303303EB4713636143
:1018B0000020BDE8F8830720BDE8F8832DE9F84F44
:1018C0004FF0FF080646444630683169FFF70FFBCA
:1018D000074600287BD175692B78002B76D0E97AF2
:1018E000E52B01F03F0267D0090702D50F2A63D12B
:1018F00001E00F2A49D1D6F81CA0BAF1000F5CD044
:10190000580606D503F0BF04F38895F80D8033849C
:1019100001E0A34250D16B7B43454DD12F784FF06E
:10192000010927F040077B1E0D275F434FF0000B96
:10193000284B1BF80330EA185078EB5C43EA002090
:10194000B9F1000F0CD001F0E7FAFE2F814633D831
:101950003AF8170001F0E0FA81452DD1013703E094
:101960004FF6FF73984227D10BF1010BBBF10D0F1E
:10197000DED12B78590605D5B9F1000F02D03AF81F
:101980001730CBB9013CE4B217E024B92846FFF781
:101990009FFA80451BD04FF6FF733384B369DA7A20
:1019A000D20709D405F10B02954210D015F8010BAE
:1019B00013F8011B8842F7D0FF2430460021FFF7BF
:1019C00000FF074600283FF47FAF00E004273846B9
:1019D000BDE8F88F48B700002DE9F74F0B780646B1
:1019E0002F2B0F4601D05C2B00D101370024B460AF
:1019F0003B781F2B72D830462146FFF7D9FD746122
:101A000015E1013339F81320202AFAD02E2AF8D014
:101A10000BB144F00304524632F8021D2E2901D0C6
:101A2000013DF9D14FF0000BD8464FF0080A39F8C4
:101A300013005A1C002800F0CA80202800F09B8068
:101A40002E2800F09680D345C0F09980BAF10B0F94
:101A500040F09880434644F003044FF00B0AB2690B
:101A60001178E52904BF05211170BAF1080F04BFF0
:101A70004FEA88085FFA88F303F00C020C2A00F0A2
:101A8000A88003F00301032900F0A380A10709D473
:101A900003F00303012B08BF44F01004042A08BF1D
:101AA00044F00804B3693046DC720021FFF780FD82
:101AB00010B93046FFF702FFB369DB7A002840F027
:101AC0008B805A0700F1B3807169CB7ADB0640F155
:101AD0008B8033681878FFF731FBB0603B783C4669
:101AE0002F2B07F10107F9D05C2BF7D0D6F81C900B
:101AF00004F1FF3AA9F1020800251AF8010F6F1C42
:101B00001F2818D92F2816D05C2814D0B7F5807F4D
:101B100075D0012101F0E4F9002870D07F2806D8A3
:101B2000444A12F8013F13B18342FAD167E028F822
:101B3000020F3D46E1E72028274409EB450334BF67
:101B400004240024002D5AD033F8022D202A01D07D
:101B50002E2A01D1013DF5E74FF0000829F8158044
:101B6000B06920210B22FFF7A3F909EB450A434690
:101B700048E7AA4245D044F00304134657E7AA4277
:101B80000FD13EE0AA4202D044F003041FD84FEA2E
:101B900088085FFA88F82A464FF00B0A4FF0080BC6
:101BA000EBE77F280CD90021019201F099F9019A05
:101BB00018B1214B184410F8800C44F00204A8B16D
:101BC0001E4911F8013F03B38342FAD10EE04346A8
:101BD00045E744F0020459E7042828D113F0040F24
:101BE00014BF0420052022E0052020E044F0030477
:101BF0005F20B36903F80B000BF1010BBDE7062072
:101C000015E0BAF10B0FC2D124E7A0F141039BB25A
:101C1000192B02D848F00208EBE7A0F161039BB250
:101C2000192B9EBF203848F0010880B2E1E703B0CD
:101C3000BDE8F08FD4B7000055B70000DDB7000055
:101C40002DE9F041FF2705463C4604262969002975
:101C500063D02868FFF74BF9064600285FD1686912
:101C60000378002B65D0E52BC17A4DD02E2B4BD0BD
:101C700001F03F02090702D50F2A45D101E00F2AE2
:101C80003BD1590605D503F0BF04EB88477B2B8475
:101C900001E0A34238D1437BBB4235D103780D220A
:101CA00003F03F03013B5343EE694FF0010E002167
:101CB000224A11F802C000EB0C0292F8018010F8E1
:101CC0000C2042EA0822BEF1000F06D0FE2B1BD8E2
:101CD00026F813209646013303E04FF6FF7C624559
:101CE00012D101310D29E3D1027852061AD5FE2B0B
:101CF0000AD8002226F8132014E0B4B9FFF7E8F858
:101D0000874212D1002616E0FF2428460021FFF763
:101D100058FD0646002899D001E0002EF2D000239D
:101D20002B6108E0013CE4B2EFE74FF6FF732B8430
:101D300001E00426F3E73046BDE8F08148B7000033
:101D400038B54FF6FF73C588018C0446994208BF29
:101D50002946FFF72DFC0146B8B921692068FFF735
:101D6000C6F8014670B96369E5221A70236801223A
:101D70001A71E388AB4208D22046FFF722FD0146E4
:101D80000028EAD0042908BF0221084638BD0129ED
:101D900070B504460D4601D8022070BD8369994292
:101DA000FAD2A3699D4205D220462946FFF79BFB44
:101DB000064608B9002070BD0128EDD0411C0ED0A8
:101DC000204629460022FFF735FC48B923693546ED
:101DD0005A1C1FBF0133236101236371E1E7012016
:101DE00070BD73B51C4616460B220546FFF756F824
:101DF000052C0AD936F8023B03EBC4339BB203EB44
:101E000054043388A4B2002BF4D1072304F00F014B
:101E100001F13002392A88BF01F13702013B02A9E2
:101E20001944240901F8072CF0D11A4602A97E2092
:101E3000194401F8080C9C4201D12C4404E0295DAE
:101E40002029FAD00134F6E7072A9DBF02AB9B1880
:101E500013F8083C202304F8013BA4EB050398BFCA
:101E60000132072BF0D902B070BD00002DE9FF410F
:101E70008669C7690C220546314601A8FFF70EF8AE
:101E80009DF80F30DA071FD50023F3720124EB61B0
:101E9000304601A93A462346FFF7A3FF2846002112
:101EA000FFF786FB48B92846FFF708FD28B901343B
:101EB000A4B2642CECD10720A9E0042840F0A7804C
:101EC0009DF80F30F372EF619DF80F309B070CD532
:101ED00000239EB237F816200133002AF9D11936B3
:101EE0000D2396FBF3F6B6B200E00126284600214A
:101EF000FFF75EFB002840F08A800746044628680A
:101F00002969FEF7F4FF002840F081806B691B7897
:101F1000E52B00D033B904B9EF880134A4B2B44240
:101F200001D107E0044628460121FFF74AFC0028BA
:101F3000E5D06CE0012C50D028463946FFF738FB3D
:101F4000002864D1A869FEF7C3FF0646013CA4B28D
:101F500028682969FEF7CBFF0346002B57D16A6931
:101F60000F21E7B2D5F81CC00D20D172791E414374
:101F70001846567313739376D3764FF6FF7E7045EB
:101F8000DFF890E018BF3CF8110013F80EE04FEABC
:101F9000202802F80E0096448EF801804FF6FF7E4E
:101FA00003F1010318BF0131002808BF70460D2B53
:101FB000E3D1704502D03CF811300BB947F040072F
:101FC00017702B6801221A7128460021FFF7F9FBD0
:101FD000E8B9013CA4B2002CBAD128682969FEF7FF
:101FE00086FF044690B96E69214630462022FEF7EE
:101FF0005FFF0B223046A969FEF750FFAB69012253
:10200000DB7A03F0180333732B681A71204604B08F
:10201000BDE8F08148B7000048B9064B1A6802B124
:10202000107009B100220A701960002070470B205F
:10203000704700BF780400102DE9F0438FB0019184
:1020400016460546002800F089800023036005A994
:1020500001A802F01E02FFF7C1F8002840F08580B9
:1020600002AB0B93424B05A801990C93FFF7B4FC0C
:102070000A9C10B9002C08BF062016F01C0F06F0B1
:102080001F0742D048B1042802D105A8FFF7EEFE91
:1020900047F008070A9C30B167E0E37A13F0110FAC
:1020A00062D173075CD43E0738D5FEF7ABFDC0F3B1
:1020B00007230026A073E373DDF81480030C000EE1
:1020C0002374E67226776677A677E677607498F8C9
:1020D00000002146FFF732F80123A676E676267542
:1020E000667588F804300646C0B140463146D8F8D7
:1020F0002C90FFF74CFE002837D10598013EC660B2
:102100004946FEF7F4FE48B12FE000282DD1E37ACE
:10211000D80627D4B10701D5DA0725D4059E3B0799
:10212000F36A48BF47F02007EB612C62AF7130784B
:102130002146FFF703F82861A37FE27F1B0443EAEF
:102140000263227F00201343627FA86043EA0223D8
:10215000EB60F388A8612E60AB8006E0092004E004
:10216000082002E0042000E007200FB0BDE8F08363
:102170007C0400102DE9F84F98460023C8F8003081
:1021800004460F461546FEF7EDFE002840F0A280FB
:10219000A379180600F19A80D90740F19A80E36884
:1021A000A068181A854228BF0546002D00F08B80D4
:1021B000A368C3F30802002A6CD120688678013E28
:1021C00006EA532616F0FF060AD10BB9206902E091
:1021D0006169FFF788F9012809D9421C51D0606173
:1021E000D4F800B061695846FFF772F920B9A379B5
:1021F00063F07F03A37169E05FEA552A00EB0609EB
:1022000023D09BF802300AEB06029A4288BFC6EB45
:10221000030A5FFA8AF39BF8010039464A46FEF743
:10222000CFFDA37970BB5B060CD5A069C9EB00009C
:10223000504507D207EB402004F124014FF400720F
:10224000FEF72CFE4FEA4A2632E0A2694A451FD02B
:10225000A37904F1240613F0400F0AD001239BF860
:1022600001003146FEF7CEFDA37958B923F04003B3
:10227000A3712368314658784A460123FEF7A0FD32
:1022800030B1A37963F07F03A3710120BDE8F88F1B
:10229000C4F81890A1683846C1F30801C1F500766A
:1022A000AE4228BF2E46214424313246FEF7F6FDC9
:1022B000A36837443344A360D8F80030AD1B3344DF
:1022C000C8F8003071E72846BDE8F88F0220BDE865
:1022D000F88F0720BDE8F88F2DE9F84F98460023C6
:1022E000C8F8003004460F461646FEF73BFE0028AD
:1022F00040F0BB80A379180600F1AC80990740F14B
:10230000AC80E368DE4228BF0026DEB1A368C3F3D9
:102310000802002A7AD1206890F8029009F1FF396A
:1023200009EA532919F0FF0919D133B9216979B99B
:10233000FFF7F9F90146206103E06169FFF7F3F95E
:10234000014629B9A368E26893427CD9E3607AE048
:102350000129A3791CD04A1C00F083806161A37914
:102360005B060DD5214651F8243BA269587801231C
:10237000FEF748FDA379002873D123F04003A37131
:10238000D4F800B061695846FFF7A2F820B9A379E4
:1023900063F07F03A3715DE0750A00EB090A23D0A7
:1023A0009BF8023005EB09029A4288BFC9EB03058E
:1023B0009BF8010039465246EBB2FEF723FD002898
:1023C0004ED1A169CAEB0101A9420BD204F124004C
:1023D00007EB41214FF40072FEF760FDA37923F073
:1023E0004003A3716D0223E0A36953450CD0A2689A
:1023F000E3689A4208D29BF8010004F12401524696
:102400000123FEF7DDFC58BBC4F818A0A0683946CC
:10241000C0F30800C0F50075B54228BF354620441A
:1024200024302A46FEF73AFDA37943F04003A37116
:10243000A3682F442B44A360D8F80030761B2B44AC
:10244000C8F8003061E7A379002043F02003A371AE
:10245000BDE8F88F0220BDE8F88F0720BDE8F88FAF
:10246000A37963F07F03A3710120BDE8F88F70B5F5
:102470000446FEF777FD002848D1A37903F0200237
:1024800002F0FF00002A41D05B060DD5214651F82D
:10249000243BA26958780123FEF7B4FC002833D10D
:1024A000A37923F04003A3712068E169FEF71FFDC3
:1024B000054658BB266AF37A304643F02003F37290
:1024C000E3683377A3891B127377E389B377E37BE0
:1024D000F3772169FEF7F3FCFEF794FBC0F30723C3
:1024E000B075F375030C000E33767076B574F57421
:1024F000A379012223F02003A37123681A712068B5
:10250000BDE87040FEF7BFBD012070BD70BD10B5C5
:102510000446FFF7ACFF00B9206010BD70B504465B
:102520000D46FEF71FFD002840F09380A2791606A5
:1025300000F18C80E3689D4203D912F0020F08BFBE
:102540001D460022A368A2600DB900254DE0206859
:10255000867876026BB1013B6A1EB2FBF6F2B3FBE2
:10256000F6F18A4205D372421340A360ED1A616905
:102570000AE0216939B9FFF7D6F8012801462DD0C4
:10258000013052D0216161610029DED0B5421AD9F3
:10259000A37920689A0704D5FFF7C5F8014618B952
:1025A00010E0FEF7A0FF01464B1C3ED0012915D9D3
:1025B00023689B69994211D2A36861613344A36087
:1025C000AD1BE3E73546A3682B44A360C5F30803BE
:1025D000002BBAD02068FEF77BFF20B9A37963F007
:1025E0007F03A37132E000EB5525A368C3F3080312
:1025F00013B3A26995421FD0A37904F1240613F006
:10260000400F0AD02368314658780123FEF7FAFBC1
:10261000A37958B923F04003A37123683146587851
:102620002A460123FEF7CCFB28B1A37963F07F0390
:10263000A371012070BDA561A368E268934207D928
:10264000E360A37943F02003A37101E0022070BD91
:10265000002070BD30B587B00191044628B301A8B1
:1026600021460022FEF7BAFD2568D8B903ABA36165
:10267000134B2046E3610199FFF7AEF9D8B96169C0
:1026800031B1CB7ADB060CD52878FEF757FDA06078
:10269000EB882046A3800021FEF78AFF0346042B27
:1026A00005D105200023236008E0092006E0002B67
:1026B000F8D1184602E00428F4D1F2E707B030BDA3
:1026C0007C0400107FB504460E46FEF74BFC054621
:1026D000F8B926B920462946FEF76AFF18E001AB93
:1026E000A3610D4B2046E361FFF7AAFA042801D14C
:1026F000256100E060B920463146FEF747FC2046E0
:102700000021FFF75EF8042802D10023236100E0D6
:102710000546284604B070BD7C04001070B598B022
:1027200018AB43F85C0D184606A90122FEF756FDCA
:10273000044600284AD103AB0C93264B06A8019906
:102740000D93FFF749F9044600283FD10B9E36B19F
:10275000F37A13F0010F0CBF0024072400E00624D5
:10276000069B31461878FEF7E9FC054674BBF37A00
:10277000DB0619D5012813D90FA806A92422FEF7D4
:102780008DFB0FA802211195FEF712FF0446E8B950
:102790000FA8FFF755FA044620B1042804D015E02D
:1027A000022413E0072411E006A8FFF7C9FA044643
:1027B00060B925B90698FEF766FC044606E006985F
:1027C0002946FFF7E4FA04460028F3D0204618B063
:1027D00070BD00BF7C0400102DE9F04F91B010AD2A
:1027E00045F8340DFEF70EFA07A9044601222846E3
:1027F000FEF7F4FC83460646002840F0AD8004ABAB
:102800000D93574B07A803990E93FFF7E5F88346FE
:1028100088B1042840F0A08007983146FEF783FF76
:10282000054658B101280CD14FF0020B07982946F4
:10283000FFF7ADFA90E04FF0080B8DE04FF0070B7B
:10284000F4E7431C6AD007983146FEF750FB8346F5
:102850000028EBD1079E29463046FEF739FE06F1E7
:10286000300759464FF4007280463846FEF720FB89
:10287000384620210B22FEF71BFBE3B201939DF8A3
:10288000043010224FF02E0BC4F30729C4F3074A7B
:10289000240E86F83B2086F846303846294686F8CE
:1028A00030B086F8479086F848A086F84940FEF791
:1028B00006FB06F1500C604639462022CDF808C0D0
:1028C000FEF7ECFA079A86F851B0107809990328B8
:1028D000DDF808C003D1526A914208BF002160466A
:1028E000FEF7EDFA079A9678DEB1079808F1010332
:1028F00002930123C0F82C8003710021FEF7F7FA40
:102900008346002892D1384659464FF40072013E62
:10291000FEF7CEFAF6B2DDF80880E5E74FF0010BDE
:1029200084E707A8FFF7A2FA834600287FF47EAF6A
:102930000C981023C3729DF8043080F817908375AB
:1029400080F818A044762946FEF7B9FA07980123C3
:102950000371FEF798FB8346584611B0BDE8F08F2F
:102960007C0400102DE9F04F884687B01646E0B988
:1029700001291CD8531E134019D1CB4A1468C4B185
:102980002370FEF705FAC30715D400F0040303F023
:10299000FF0093B9012105AAFEF756FA08B10120FC
:1029A00097E2059B7F2BFAD909E00B2091E21320D7
:1029B0008FE20C208DE203208BE20A2089E2B8F13D
:1029C000000F14BF4FF000094FF03F09C9EB03039C
:1029D00005936EB94FF4FA62B3FBF2F2B34931F8E2
:1029E00016108A4201D20136F8E7B14A32F8166071
:1029F000760A03D0812E28BF802600E00126B3FB93
:102A0000F6F540F6F572954240F251824FF6F572B6
:102A1000954240F25A82AD0005F2072500226D0A68
:102A2000032700924FF0200C009A0CEB090B02EBED
:102A3000050ADA44C9EB06025244934201D20E2041
:102A400047E20020032104AACDF804C0FEF7FCF9F8
:102A5000DDF804C0002840F02782049B013BB3F559
:102A6000004F80F02182049A032F02F1FF33534478
:102A7000C2F1000203EA0203CAEB0303059A0ABF8C
:102A80009C44ED189B4404930099CCEB02035B1B20
:102A90005B1AB3FBF6F3022F019305D140F6F573F1
:102AA00001999942CBD90BE0032F07D14FF6F5736B
:102AB000019A9A42C3D94FF00C0A0BE0022F07D1BA
:102AC000B2F5803F34BF4FF0040A4FF0060A01E030
:102AD0004FF0010AB8F1000F50D104F1300318464D
:102AE00041464FF400720293CDF80CC0FEF7E0F9B6
:102AF00043F6C161FE2284F8F321059A029B09EB9B
:102B00000200B0FBF1F18808049184F8F5113F212F
:102B100084F8F611C2F3072184F8FA2184F8FB1136
:102B2000110C120E84F8FD2155224FF0010E40F0D9
:102B30003F0084F82E22AA2284F8F40184F8FC11C4
:102B400084F82F22194684F8EFE184F8F0E184F844
:102B5000F18184F8F2A184F8F78184F8F88184F88F
:102B6000F981404642467346FEF74CF900287FF44F
:102B700016AF4FF0F80ADDF80CC001E04FF0F00A94
:102B800004F13008404600214FF40072CDF808C02F
:102B9000FEF78EF9404647490B22FEF77FF90023E6
:102BA000032F84F83B3084F8413018BF022384F8A7
:102BB0004230059B0222B3F5803F84F83C204FF061
:102BC000010284F8402028BFC3F30722DDF808C0C3
:102BD00035BF84F8433084F850301B1284F85120FC
:102BE00025BF1A0C1B0E84F8443084F853304FF084
:102BF0003F0328BF84F8522084F83EC0FF22CCF364
:102C0000072C84F84830002384F8493084F84A209F
:102C100084F84B3084F84D3084F84E3084F84F30CF
:102C200084F83D6084F83FC084F845A084F84C9057
:102C30000293FDF7E7FF032F049082B2029B3DD180
:102C4000121284F87420020C84F87520C5F3072250
:102C500084F855202A0C84F856202A0E84F8572030
:102C6000022284F85C2084F85D30012284F85E3012
:102C700084F85F3084F8613084F86330802384F80E
:102C8000730084F86020000E062284F87030292337
:102C900084F8760084F8545084F8622084F8723006
:102CA00004F17700044923E07804001030B80000F4
:102CB0001AB80000E5B70000F1B70000030C84F873
:102CC0005930C5F3072384F84730802384F8570030
:102CD0001212000E84F854307F49292384F85A00D8
:102CE00084F8582084F8465084F8563004F15B008C
:102CF0001322FEF7D3F8552384F82E32AA2384F842
:102D00002F32002041464A460123FEF77BF8002877
:102D10007FF445AE032F05D1414609F10602012398
:102D2000FEF770F8404600214FF40072FEF7C0F83D
:102D3000032F13D0694B012F18BF6FF0FF0343EA35
:102D40000A03FF224FEA136A049384F8303084F8B0
:102D5000312084F8322084F833A01CE06AF0FF03AD
:102D6000049384F83030FF2384F8313084F8323013
:102D700084F8333084F8343084F8353084F83630D1
:102D800084F8373084F8383084F8393084F83A30B1
:102D90000F2384F83B30414600205A460123FEF7BA
:102DA00031F80BF1010A014600287FF4F8AD4046E6
:102DB0004FF40072FEF77CF801230493049BAB42AE
:102DC0000FD200204146524601230AF1010BFEF7C3
:102DD00019F800287FF4E3AD049BDA46013304932D
:102DE000ECE7009BD346032F18BF1E460AF1010CE7
:102DF0000020414652460123CDF800C0FEF702F8FC
:102E0000054600287FF4CBADDDF800C006EB0B03D0
:102E10006345E246EAD1032F3DD1522384F8303096
:102E200084F83130612384F8323084F81732019B02
:102E30004122013B84F8332084F81622C3F3072291
:102E400084F8183284F819221A0C1B0E84F81B32ED
:102E5000022384F81C325523722184F82E32AA23CF
:102E600084F8141284F8151284F81A2284F82F3288
:102E7000414609F10102012384F81D0284F81E0273
:102E800084F81F02FDF7BEFF2846414609F10702FC
:102E90000123FDF7B7FF002001460246FDF7D4FFEE
:102EA000003018BF012014E001230493DBE505EB9B
:102EB000450501356D080335012705F2FF15202270
:102EC0006D0A00924FF0010CAEE502356D0002274D
:102ED000F3E707B0BDE8F08F05B8000000FFFF0082
:102EE0007F2816D931B1FF2812D80A4B803833F821
:102EF00010007047074A8BB232F81120824203D08B
:102F000001318029F6D10B4603F18000C0B2704731
:102F10000020704746B800000023064A32F813200C
:102F200032B1904201D00133F7E7034A32F813007F
:102F3000704700BF26BB000046B90000036870B5AB
:102F40001B690021012204469847431C05460ED008
:102F5000236820461B690021022298472368064601
:102F600029461B69204600229847304670BD70BD37
:102F7000084A094B10B4026003F58071002453F82D
:102F8000042B824208BF43F8044C8B42F7D15DF812
:102F9000044B704728BD00007C0600100A4A0B4B0A
:102FA00010B503F5807104460260002053F8042B2D
:102FB000944208BF43F8040C8B42F7D1204601F03D
:102FC00094FC204610BD00BF28BD00007C06001008
:102FD00002480349034A00F031BE00BF88080010D0
:102FE00002C0092003C00920F0B50E4685B035495E
:102FF000054603F01CFE20B9334B1B6863B105B0D6
:10300000F0BD2846314903F012FE78B92E4B1B68FB
:1030100043B1012005B0F0BD0190FFF7D9FF019841
:1030200005B0F0BDFFF7D4FF0120E8E728462849A6
:1030300003F0FDFD10B3274B002402E00134402CC7
:1030400021D053F8040F0028F8D12B783A2B32D036
:10305000294602A800F0D0FE02A800F01FFF90B1A0
:1030600002A800F003FF88B102A800F009FF0346A0
:103070004BB1194AE01C42F82430C0E7124B1B68E0
:10308000ABB10220BBE74FF0FF30B8E702A800F079
:10309000E1FE05460028F6D0036802A89F6800F00C
:1030A000D7FE324601462846B8470346E0E7FFF719
:1030B0008FFF0220A3E72846084902AA03F048FD33
:1030C000029BD5E708BD00007C07001018BD00007A
:1030D00010BD0000780600107C06001050BD0000F6
:1030E000022808B50BDD084BC21E53F82200002150
:1030F00043F8221028B103685B68984708BD002098
:1031000008BD4FF0FF3008BD7C060010022870B5E6
:103110000C4616460FDC0E4B1B680BB9FFF758FF29
:10312000A51936B114F8011B0A4800F0D7FCAC42CF
:10313000F8D1304670BD084B033853F8200018B161
:1031400003681B68984770BD4FF0FF3070BD00BF2B
:103150007C070010880800107C060010022810B5BB
:103160000C4609DC0D4B1B688BB10D4800F060FC70
:1031700001232070184610BD0A4B033853F8200075
:1031800040B103689B6898470346184610BDFFF797
:103190001FFFEAE74FF0FF33ECE700BF7C070010AA
:1031A000880800107C060010022808B508DD074BCF
:1031B000033853F8200028B10368DB68984708BD3E
:1031C000012008BD4FF0FF3008BD00BF7C06001095
:1031D000022808B508DD074B033853F8200028B152
:1031E00003681B69984708BD002008BD4FF0FF30F9
:1031F00008BD00BF7C060010022808B504D84FF4B3
:1032000000534B60002008BD01F028FC0923036037
:103210004FF0FF3008BD00BF70B5034682B00D46C9
:103220006846194600F0E8FD684600F013FE0446C3
:1032300050B1036868469E6900F00AFE2A460146BE
:103240002046B04702B070BD4FF0FF30FAE700BF34
:1032500008B5012001F008FC704700BF704700BFAF
:1032600008B5FFF7FBFFFFF7F7FFBDE80840FDF7E4
:103270009DB800BF074A13681844EFF308818842DD
:1032800002D2106018467047034B0C221A604FF0B0
:10329000FF307047CC000010900800100A4C08B5B1
:1032A00023680546986801F0FBFC2368D86801F0A4
:1032B000F7FC00F069FF20B905B9FEE700F062F8FD
:1032C000FBE700F085FFF7E7440100102B4A2023BD
:1032D00070B4C2F8A031D2F8A031980645D4274B7B
:1032E000022100250124AA2055220B26C3F804112F
:1032F000C3F8A8511946C3F8AC51C3F80C41C3F840
:103300008460C3F88C00C3F88C20C3F88040C3F8F5
:103310008C00C3F88C20D1F88830184A5B01FAD5AC
:103320000321AA205523C2F88010C2F88C00114650
:10333000C2F88C30D1F88830104A13F0407FF9D0B1
:103340000F4900230520C2F80801C2F8C410C2F8D2
:10335000C831136870BC23F4704323F03A0343F47C
:10336000405343F03A0313607047D2F8A031590636
:10337000B5D4D2F8A0315906F7D5B0E700C00F4058
:10338000DE87280400B599B072B63B49684600F064
:1033900043FE06A8394900F03FFE0CA8384900F06A
:1033A0003BFE12A8374900F037FE32E00699039B36
:1033B000019A01311A6059D00C990A9B079A013180
:1033C0001A604DD01299109B0D9A01311A6041D0AC
:1033D000159B139A96201A6000F01AFF009B013388
:1033E00032D00699049B019A01311A6026D00C99BB
:1033F000099B079A01311A601AD012990F9B0D9AF6
:1034000001311A600ED0169B139A96201A6000F0B4
:10341000FFFE009B0133C9D11B481C49242200F048
:10342000D3FDC3E718481949242200F0CDFDEAE78F
:1034300015481649242200F0C7FDDEE7124813495B
:10344000242200F0C1FDD2E70F481049242200F0E9
:10345000BBFDC6E70C480D49242200F0B5FDB7E7D7
:1034600009480A49242200F0AFFDABE706480749A6
:10347000242200F0A9FD9FE732C0092034C00920B2
:1034800035C0092037C0092060BD000078BD0000AC
:103490000C4A30B4936894681A46B4F1805F0CD239
:1034A000094A03F1C40553F8044BAB4242F8044FF8
:1034B000F9D1044B4FF080529A60103042F820103E
:1034C00030BC704700ED00E0FCFFFF0F0649074AE3
:1034D000074B9A42BEBF51F8040B42F8040BF8E7C1
:1034E000044880470448004798C80000C8000010FE
:1034F000D0010010CD32000029010000FEE7FEE7F8
:10350000FEE7FEE7FEE7FEE7FEE7FEE7FEE7FEE793
:1035100008B5154A9368C3F34203012B1ED0022B52
:1035200019D1124B596F01310AD0D3F88010986F1E
:10353000086093F8A61019B9516821F00101516093
:10354000186F0A4B48B193F8A6302BB10021084AF6
:103550001368984708BD08BD08BD08BD034A106F31
:103560000028F9D01946F2E70080094084070010CE
:103570008007001070B50368294CA34249D041DD93
:10358000284CA3422AD004F58044A34244D1264CBF
:1035900008263ABB01290BD04568244AC5EBC5056E
:1035A00002EBC50494F8355094F83620EA4214D161
:1035B000012202FA01F5D1F1010138BF002102FA1E
:1035C00001F15C6824EA05045C6003685B681942E9
:1035D00003D1B240164BC3F8802070BD154C0726AE
:1035E000002AD7D0012505FA01F176B2304605FA56
:1035F00006F65A680A435A602146FFF749FF0C4B0A
:103600001E6070BDA4F58044A34205D10A4C052676
:10361000BFE70A4C0626BCE700242646B9E700BFF0
:103620000000014000800940A5360000840700101A
:1036300000E100E0113500004136000011370000C4
:1036400008B5154A9368C3F34203012B1DD0022B22
:1036500018D1124B5968013109D01969986808606E
:1036600093F8361019B9516821F0010151601868BA
:103670000A4B48B193F836302BB10021084A136841
:10368000984708BD08BD08BD08BD044A1068002859
:10369000F9D01946F2E700BF00C0004084070010CF
:1036A0008007001008B5174A9368C3F34203012B43
:1036B00021D0022B1CD1144BD3F8AC1001310BD00C
:1036C000D3F8B810D3F8B000086093F8DE1019B939
:1036D000516821F001015160D3F8A8000A4B48B1AC
:1036E00093F8DE302BB10021084A1368984708BDD3
:1036F00008BD08BD08BD044AD2F8A8000028F8D0CB
:103700001946F1E700C00940840700108007001047
:1037100008B5154A9368C3F34203012B1DD0022B51
:1037200018D1124BD96B013109D0996C186C086013
:1037300093F86E1019B9516821F001015160986B2E
:103740000A4B48B193F86E302BB10021084A136838
:10375000984708BD08BD08BD08BD044A906B002805
:10376000F9D01946F2E700BF0000014084070010BD
:10377000800700102DE9F04F0368884A8DB093420E
:1037800009908B4600F3F080854A934200F0F78061
:1037900040F3D780834A934200F09F8002F5804235
:1037A00093420CD1804AD2F8AC1121F44021C2F8E6
:1037B000AC11D2F8AC1141F48021C2F8AC117B49B4
:1037C0004FEA0B1209680891089CB1FBF2F102FB69
:1037D000114289B20491002A00F0B1806100A20078
:1037E0000123029400240B910A9201930F46039245
:1037F0000693CDF81CB05E460594DDF81CA0019937
:103800004FF00008D146CDB2DA46C346002F79DB2F
:103810000399DDF804E0B1FBF9F464090134C4F361
:103820004F04DE44002C66D10124B8F1000F67D1AB
:1038300004FB0EF0029AC000B2FBF0F00130CAEBBC
:10384000500001F0F8F8B04206DA504564D0064660
:10385000CDF81480049406950BF1010B5FFA8BF8F8
:103860004545D144D2D8019CD3460F2C4FF00003DC
:103870005DD0029A0899019C0A440B990134029286
:103880000194039A0F440A9C0799224459440392D5
:103890000791002BB1D0069B059A099C42EA0310C0
:1038A0002368C0B2197B049C41F08001C4F3072255
:1038B000099C1973236804991A7123685FFA81FBC4
:1038C00083F800B0236883F8280023681A7B02F08D
:1038D0007F021A730DB0BDE8F08F334AD2F8AC11F5
:1038E00021F44031C2F8AC11D2F8AC1141F480316E
:1038F000C2F8AC1163E7B8F1000F99D0012C97D84A
:10390000022495E7B7FBF9F42409DDF804E001345B
:10391000C4F34F04DE4485E70494019CD3460F2C86
:103920000695CDF8148056464FF00103A1D10599B4
:10393000069A099C41EA0210C0B22368B2E710203F
:10394000B0E7A2F5804293427FF439AF164AD2F82D
:10395000A81121F0C001C2F8A811D2F8A81141F0B5
:103960004001C2F8A8112AE79B221148114900F032
:103970002BFB099C0A4A236893427FF409AF0A4A49
:10398000D2F8A81121F44071C2F8A811D2F8A811F8
:1039900041F48071C2F8A81111E700BF00C00940CE
:1039A000000001400080094000C00F40D00000101E
:1039B00080BE00009CBE0000F8B55D1E012D0746CC
:1039C0000C46164604D915481549FB2200F0FCFAAE
:1039D000053C032C1CD8042E14D8013EF6B2032E4D
:1039E0000DD8104B082253F826301B01DBB244EAF5
:1039F0008504144323433A68DBB21373F8BD0023F4
:103A00001A46F4E708480649FE2200F0DDFAE4E72A
:103A100006480349FC2200F0D7FADCE704BF0000A7
:103A20009CBE000004BE000050BF00002CBF000080
:103A300000B50268137DDB07FCD543680949C3EB79
:103A4000C30301EBC303596810780131C0B207D03A
:103A5000596904335B680B60536843F0010353609A
:103A60005DF804FB8407001038B54368184AC3EBBF
:103A7000C303DB00D1180446C869013011D01833E4
:103A80001A445368151D013316D06A696B681268B1
:103A90001A4204D12368187DC0F3801038BD00207D
:103AA00038BD23681B7D9B060CD491F834000F2889
:103AB0008CBF0020012038BD064807492C2200F0A9
:103AC00083FAE2E7002381F83430012038BD00BFDB
:103AD0008407001060BD0000D4BF000038B5044664
:103AE0000D462046FFF7C0FF0028FAD02368EDB24C
:103AF0001D706268054BC2EBC20203EBC20393F870
:103B00003420013283F8342038BD00BF8407001010
:103B10002DE9F04F0446454D006883B0A8420E469B
:103B20009046994643D06568002301932A46DFF802
:103B300008A1EF00C2EBC202781B4FF0000E0AEBA7
:103B4000C0000AEBC20C4FF0FF33C3614360714603
:103B5000724620468CF835E0FFF70CFD16B903B02D
:103B6000BDE8F08F3249404600F0E6FA314983461D
:103B7000484600F0E1FAB21E012A38D9012EEED1F2
:103B8000B8F1FF3FEBD02949226807208B4510721E
:103B900015D1019B9BB11B7C019A254943F0400341
:103BA0004046137403B0BDE8F04F00F093BA037CB5
:103BB000656803F03F03037462680190B7E77D1BFB
:103BC0000AEBC50041460430002200F047FA626863
:103BD0000125C2EBC2020AEBC20320462A4600219D
:103BE00083F8355003B0BDE8F04FFFF7C3BCB9F11F
:103BF000FF3F09D00D4A90420CD0781B0AEBC00061
:103C000049461C3000F0F6F9032EA8D1B8F1FF3F69
:103C1000B9D1A4E7019B002BEFD01A7C484642F0B3
:103C200080021A74034900F055FAEDE700000140E4
:103C3000E0BD0000BCC00000840700102DE9F04783
:103C40000F46054608466149164600F083FA60496A
:103C50000446304600F07EFA0146204600F05AFA4B
:103C6000411C044600F0AB805A4B2860984200F09B
:103C7000838053D9584B984276D003F580439842BD
:103C800006D1564BD3F8C42042F00072C3F8C420CA
:103C90004FF0010984F808902B684FF00008C3F832
:103CA000048028464FF41651FFF764FD42464B4608
:103CB00028460821FFF780FE3846444900F00AFAFA
:103CC0003046434900F006FA7A1C03D03846414694
:103CD00000F022FB731C03D03046002100F01CFBD7
:103CE0003C4B9C4250D025D93B4B9C4264D003F5C1
:103CF00080439C424BD103236B603949C3EBC30320
:103D00004FF0FF34284601EBC305224623466C6082
:103D1000EC610021BDE8F047FFF7FABEA3F5804350
:103D20009842B5D12D4BD3F8C42042F00802C3F815
:103D3000C420ADE7A3F580439C4228D1284E4FF024
:103D4000FF34002169602246234628467460F461EE
:103D5000FFF7DEFE234B012429461C60224808227F
:103D6000BDE8F04701F074BB1C4BD3F8C42042F00F
:103D70008072C3F8C4208BE7184BD3F8C42042F0FC
:103D80001002C3F8C42083E701236B60B5E76B68BA
:103D90001349C3EBC3034FF0FF3601EBC3073246B1
:103DA0003346284600217E60FE61FFF7B1FE0F4BCF
:103DB0009C42CFD0BDE8F08702236B609DE70C48A2
:103DC0000C495C2200F000F92C6061E750C0000053
:103DD00014BE0000000001400080094000C00F40F8
:103DE000840700107C0700108808001000C0004005
:103DF00040C000009CBE000038B500230360436053
:103E00000A7804462F2A01D0204638BD4A78002A75
:103E1000FAD0481C20604A782F2A14D0B2B18D1CE9
:103E2000194600E052B125602A782B462F2A01F16D
:103E3000010105F10105F5D10133236000F000FD1A
:103E40006060204638BD19460346F5E71146F5E7A0
:103E50000068704710B50446406828B100F00EFDB8
:103E6000012801D1606810BD002010BD406808B570
:103E700028B100F003FDD0F1010038BF002008BDDB
:103E800010B50446406830B100F0F8FC18B960681D
:103E900008B1043810BD002010BD00BF40680030DC
:103EA00018BF0120704700BF4FF0FF30704700BFC0
:103EB000002070474FF0FF30704700BF10B5034B34
:103EC0000446036000F072FC204610BDE8C000000C
:103ED00010B5054B0446036000F068FC204600F076
:103EE00004FD204610BD00BFE8C0000010B501224F
:103EF000044600F091FC024B2046236010BD00BF39
:103F0000E8C00000014B0360704700BF10C1000013
:103F100010B5034B0446036000F0E7FC204610BDDB
:103F200010C10000F0B5DFF848C004460F4883B068
:103F30004FF0080E251D00264FF0FF37C4F800C0D3
:103F4000C4F808E0206166602846E660009700F04B
:103F500027FB28463346A168E26800F081FA28462C
:103F6000216900F0B5FA204603B0F0BD40420F00D1
:103F700010C1000070B5094D04462B6883420BD078
:103F8000061D3046A168E268002300F069FA304659
:103F9000216900F09DFA2C6070BD00BF640800101C
:103FA000024B002201611A60FFF7E4BF64080010B1
:103FB00038B50C460546FFF7DDFF281D2146BDE854
:103FC000384000F08FBB00BF10B5084B044618689E
:103FD00082B00B46C06806490092224600F068FF96
:103FE00002B0BDE81040FFF7CDB900BF440100109A
:103FF00020C1000038B50D46044600F027F9013510
:1040000009D02046002100F03DF920460321BDE8FB
:10401000384000F033B938BD38B50D46044600F0DD
:1040200015F901350FD0236801330DD0236962687B
:1040300020461A60012100F025F920460221BDE842
:10404000384000F01BB938BD024803492422FFF76D
:10405000BBFFEBE760BD000078BD000070B50D460A
:104060001646044600F0F2F8013514D023680133F7
:1040700012D066B9236962681A602046012100F0F7
:1040800001F920460221BDE8704000F0F7B8E3686E
:1040900062681A60F1E770BD034804492422FFF703
:1040A00093FF002EE6D0F2E760BD000078BD00006F
:1040B0000FB400B5064A83B004AB126853F8041B72
:1040C000D0681A46019301F0F1FD012000F0CCFC0C
:1040D00044010010431C10B5044618D00B68581C4E
:1040E00004D10FE051F80C3F5A1C0BD09C42F9D17F
:1040F0002046896800F0E8F820460221BDE810401B
:1041000000F00AB90248BDE81040FFF7D1BF10BD6A
:1041100054C10000884208B50AD0431C07D00131C1
:1041200006D00448FFF7C4FF4FF0FF3008BD084633
:1041300008BD00BF68C100000B685A1C04D107E02D
:1041400051F80C3F5A1C03D08342F9D1486870479C
:104150001846704708B5431C0CD00B685A1C04D194
:1041600009E051F80C3F5A1C05D09842F9D1486833
:10417000411C00D008BD0348FFF79AFF4FF0FF3005
:10418000F8E700BF7CC1000000F02EB80C4B10B562
:104190001B68044653B1984740B90A4B1B6803B1EA
:1041A0009847094B1B680BB100209847074B1B68C9
:1041B0001BB1984704B1206010BD1846FAE700BF54
:1041C000D8000010D4000010E0000010DC00001047
:1041D00030B585B018246D4620462946ABBE04464E
:1041E000204605B030BD00BF024B186800F001004A
:1041F000704700BFF0ED00E038B5054600F0B0FABA
:10420000044600F0ADFA001BA842FAD338BD00BF47
:104210004FF47A7303FB00F0FFF7EEBF431C10B5B9
:10422000044608D02046002100F04EF804F01F0498
:104230000120A04010BD034803491522FFF7C4FE2A
:10424000F0E700BF9CC10000B0C1000038B50446D3
:104250004B1C0D4621600FD00846FFF7DFFF25F00D
:104260001F0505F1180105F11C0205F1140360603A
:10427000A560E1602261636138BD00BF006800F0A5
:104280004BB800BF38B50368044601330D4610D063
:1042900045B1012D05D1A368626819680A431A6007
:1042A00038BD38BDA36861681A6822EA01021A6045
:1042B00038BD034803492C22FFF786FEE8E700BF1C
:1042C00060BD0000B0C1000038B5431C04460D4677
:1042D00017D004F16040A0F51C2000F00F035B0034
:1042E00003229A409D4003099B0003F1804303F59C
:1042F0003033196821EA02021A601A6815431D60FA
:1043000038BD034803491522FFF75EFEE1E700BF11
:104310009CC1000018C2000038B5431C04460D467D
:104320002CD004F16040A0F51C2000F01F04C5F360
:10433000800202FA04F443099B0003F1804303F571
:104340003033996E21EA04019966996E0C439C669C
:104350009AB900F00F035B0003229A4005FA03F3B9
:104360000009800000F1804000F53030016C21EA46
:1043700002020264026C1343036438BD024803491D
:104380002022FFF721FECCE79CC1000018C20000EC
:10439000074A084BD2F8C400002140F40070C2F86C
:1043A000C40019721A7A42F001021A72704700BFF3
:1043B00000C00F4000400240024B187A00F001009C
:1043C000704700BF0040024000B50E4B8BB093F821
:1043D000202001A8019293F82420029293F828202B
:1043E000039293F82C20049293F838209B8F013A83
:1043F0009BB2A3F26C730592069301F013F90BB014
:104400005DF804FB0040024000B583B002AB43F806
:10441000040D184600F0BCFE104B1A7A42F002025E
:104420001A72027883F82020027983F82420027A15
:1044300083F82820027B83F82C2002690132D2B253
:1044400083F83820426902F26C7292B29A871A7A23
:1044500002F0FD021A7203B05DF804FB0040024056
:104460002DE9F0410468074660680E46043920F0E3
:1044700002000C2915469846606001D8032A05D928
:10448000114812496422FFF79FFD3C68206805F03F
:104490000103013E46EAC316C5F34005000C46EA97
:1044A00085150004284320606368B8F1000F23F0ED
:1044B0000D030CBF0022042213436360636843F0C2
:1044C00002036360BDE8F081F4C2000030C3000065
:1044D000F8B503682E4A5C68934224F0020407464C
:1044E0005C6042D002F5B022934230D0294B08469E
:1044F0001E6806F0C7FD0224054603E00234B4F549
:10450000807F40D0B6FBF4F006F0BCFD294606F0F3
:10451000C1FE4FF07C5106F001FD06F073F900F08A
:10452000F7F906F05DFCFF28E8DC3B6801381C6108
:104530001A6822F47F0222F47F421A601A6842EA63
:10454000002018605A6842F002025A60F8BD124B0F
:10455000D3F8AC2122F44062C3F8AC21D3F8AC21EB
:1045600042F48062C3F8AC21C0E70B4BD3F8A8211A
:1045700022F44012C3F8A821D3F8A82142F48012F3
:10458000C3F8A821B2E70548BDE8F840FFF790BDA1
:1045900000000340D000001000C00F4098C300008E
:1045A0002DE9F04F044683B00846894644499046B9
:1045B0001F460C9EFFF7CEFD42490346404601933D
:1045C000FFF7C8FD404905463846FFF7C3FD3F49A0
:1045D00083463046FFF7BEFD019B294682461846BA
:1045E000FFF798FD514605465846FFF793FD0146F3
:1045F0002846FFF78FFD421C20605AD0344B98426A
:104600004FD003F5B023984223D0731C2BD0204603
:10461000002201230821FFF723FF20462D49FFF741
:1046200057FF236848465A68254942F002025A60FB
:10463000FFF750FD40462349FFF74CFD384622491D
:10464000FFF748FD2149304603B0BDE8F04FFFF7C2
:1046500041BD03F5E823D3F8C42042F40012C3F8A7
:10466000C420731CD3D10022134620460821FFF733
:10467000F7FE20461749FFF72BFF236848465A6884
:104680000F4942F002025A60FFF724FD40460D49EF
:10469000FFF720FD0C49384603B0BDE8F04FFFF7A7
:1046A00019BD0D4BD3F8C42042F48062C3F8C42076
:1046B000ABE70A480A494422FFF786FC20689DE7D9
:1046C000D4C300007CC20000B8C2000010C40000C7
:1046D0000000034040420F0000C00F40C0C3000074
:1046E00030C300000368DA689007FCD59960DA6887
:1046F0005207FCD598687047134A38B513680BBB4E
:1047000012490124D1F8C4501460114A114845F4EB
:104710000005C1F8C4501367036801F1437101F546
:10472000F45103319B08A1FB03039B0C013B0221C5
:1047300051600420D36008495460FEF7A9FE074B7E
:1047400010221A6038BD00BF6808001000C00F407A
:1047500000400940D00000108148000000E100E066
:1047600008B5044B1B680BB9FFF7C6FF024B9868EE
:1047700008BD00BF6808001000400940034B986165
:104780005A6942F001025A61704700BF0040094077
:10479000024B5A6922F001025A61704700400940F9
:1047A000014B01221A60704700400940094A8368A2
:1047B000026053B1084B1A68824201D106E01A46E2
:1047C00053688342FBD143685360704742681A6064
:1047D000704700BF58C400006C0800100C4A836882
:1047E00010B50446026053B10A4B1A68904201D1D9
:1047F0000AE01A4653689C42FBD163685360204626
:1048000000F073F8204610BD42681A60F7E700BF59
:1048100058C400006C080010074B10B40024027349
:10482000816080E8180019B1044B1A681860426072
:104830005DF8044B704700BF58C400006C080010BE
:104840000D4B70B51C6806460D4614B912E064683D
:1048500084B1A36831462A461846002BF7D002F0EF
:10486000F8F90028F3D1A06802F0EBF9A842EED1E4
:10487000204670BD002070BD6C080010007B7047A2
:1048800070B5FFF78DFF0E4C0E4E236873B11D6897
:10489000FFF766FF281A00280CDC216832688B6855
:1048A0002360002AF2D048689047EEE7BDE87040E8
:1048B000FFF76EBF2368BDE870401868FFF75EBF62
:1048C000700800107408001010B5002814BF0446CA
:1048D0000124204600F09EFD30B900F009F808B927
:1048E00000F0A2F88047F4E710BD00F09BBD000087
:1048F000024B1868BFF35F8F704700BF7808001045
:1049000003460846194600F09BB80000000000006E
:104910002DE9F047C1F30A58A8F2FF36132E0B46D3
:1049200004460D460246894607461DDC002E40DB44
:10493000DFF8F08048FA06F808EA010E5EEA0202A3
:1049400017D035A3D3E9002305F0FEFD0022002394
:1049500006F03CFA20B1002D40DB29EA08050027CB
:1049600038462946BDE8F087332E06DDB6F5806F60
:104970002FD020461946BDE8F087A8F213424FF029
:10498000FF3A2AFA02FA1AEA000FF2D022A3D3E978
:10499000002305F0D9FD0022002306F017FA0028B5
:1049A000DED0002D1FDB4D4627EA0A073846294690
:1049B000D8E719A3D3E9002305F0C6FD00220023A0
:1049C00006F004FA0028CBD0002D1ADB00273D4664
:1049D000C6E702460B4605F0B7FDCCE74FF480135F
:1049E00033419944B9E7142E08D0C8F5866808F118
:1049F0000308012303FA08F31F19D4D309F10109AD
:104A0000D1E725F00042064B224318BF1D46002780
:104A1000A6E700BFAFF300809C7500883CE4377EBA
:104A20000000F0BFFFFF0F0008B5062002F050F8AD
:104A30000120FEF733FC0028B8BF40427047000059
:104A400038B5054604480C46134620B102202946D5
:104A50002246AFF3008038BD00000000014B18680B
:104A6000704700BF4401001008B5074B044613B15E
:104A70000021AFF30080054B1868836A03B19847A3
:104A80002046FEF70BFC00BF00000000C4C400007D
:104A900070B505460C4609B9002070BD18B1836990
:104AA0000BB900F04FF9204B9C4201D16C6808E033
:104AB0001E4B9C4201D1AC6803E01D4B9C4208BFD9
:104AC000EC68B4F90C30002BE6D02846214600F003
:104AD00039F8236B064633B12846216A98470028E7
:104AE000B8BF4FF0FF36A3891B0603D528462169BE
:104AF00000F012FF616B41B104F14403994202D00E
:104B0000284600F009FF00236363A16C21B1284609
:104B100000F002FF0023A36400F07EF90023A381CC
:104B200000F07BF9304670BD60C4000080C4000016
:104B3000A0C40000024B01461868FFF7A9BF00BFE0
:104B4000440100108A892DE9F041054610070C4602
:104B500057D44B68002B02DC0B6C002B18DDE66A87
:104B6000B6B102F48052002392B22F682B600AB1D2
:104B7000626D10E0216A28460123B047411C0246BD
:104B800009D12B683BB11D2B01D0162B46D12F60CC
:104B90000020BDE8F081A3895B0705D56368D21AC0
:104BA000636B0BB1236CD21AE66A00232846216A94
:104BB000B047461CA38905D12A681AB11D2A01D025
:104BC000162A19D1002262602269D904226004D514
:104BD000421C01D12B6803B96065616B2F6000290D
:104BE000D6D004F14403994202D0284600F094FE46
:104BF00000206063BDE8F08143F04003A381BDE87D
:104C0000F0810F69002FC3D093070E680CBF4B696A
:104C10000023C7EB06080F608B6012E0A3894FF0FA
:104C2000FF3043F04003A381BDE8F0812846216AAC
:104C30003A464346A66AB0470028EFDD0744C0EB7A
:104C40000808B8F1000FF1DCA2E7000038B50B69E5
:104C500005460C46DBB118B183690BB900F072F858
:104C60000C4B9C4201D16C6808E00B4B9C4201D17B
:104C7000AC6803E0094B9C4208BFEC68B4F90C3007
:104C80002BB128462146BDE83840FFF75BBF002026
:104C900038BD00BF60C4000080C40000A0C4000094
:104CA000014620B9044B0549186800F02DBA044BA1
:104CB0001868FFF7CBBF00BFC4C400004D4C000014
:104CC00044010010014900F01FBA00BF4D4C000024
:104CD00010B504460023036043608360818143660E
:104CE000C28103614361836119465C30082200F090
:104CF000BAFB054B24626362044BA362044BE3627C
:104D0000044B236310BD00BFA56B0000CB6B0000FC
:104D1000036C0000276C000070B568234D1E5D43D6
:104D20000E4605F1740100F03BFE044640B100213F
:104D300080E842000C30A06005F1680200F093FBAF
:104D4000204670BD836910B5044633BB8364C364D9
:104D50000365124B124A1B688262984204BF01230A
:104D6000836100F01FF86060204600F01BF8A0602F
:104D7000204600F017F80421E06000226068FFF789
:104D8000A7FFA06809210122FFF7A2FFE068122116
:104D90000222FFF79DFF0123A36110BDC4C40000E0
:104DA000C54C0000F8B51B4B07461E68B36913B924
:104DB0003046FFF7C7FF4836B4687368013B04D438
:104DC000B4F90C5075B16834F8E733682BB938463C
:104DD0000421FFF7A1FF306008B13668ECE70C232F
:104DE0003B60F8BD4FF6FF73E3810123A381656645
:104DF0002560A560656025616561A56104F15C00C1
:104E00002946082200F02FFB6563A563A564E564CD
:104E10002046F8BDC4C4000070477047F7B50F4680
:104E2000114601AA054603F0EBFD064608B900202D
:104E300029E02846FFF7B6FF04460028F7D02846A9
:104E40003946019A4FF4DB7301F090FD002806DA31
:104E50000025FFF7E1FFA581FFF7DFFFE7E70B4B39
:104E6000E08163620A4BA681A3620A4B2462E3627B
:104E7000094B2363F30505D528462146002202236A
:104E800000F0B4F8204603B0F0BD00BFA56B0000F1
:104E9000CB6B0000036C0000276C000003460A4641
:104EA000024908681946FFF7B9BF00BF4401001066
:104EB0000EB403B5014603AB054853F8042B006854
:104EC000019300F0EBFD02B05DF804EB03B0704716
:104ED0004401001070B50E461446054618B18369AA
:104EE0000BB9FFF72FFF0A4B9C4201D16C6808E019
:104EF000084B9C4201D1AC6803E0074B9C4208BFC1
:104F0000EC68284631462246BDE8704001F040BDBD
:104F100060C4000080C40000A0C4000003460A462C
:104F2000024908681946FFF7D5BF00BF44010010C9
:104F300070B50D461446064618B183690BB9FFF7E4
:104F400001FF224B9C4201D1746808E0204B9C4237
:104F500001D1B46803E01F4B9C4208BFF468A389E9
:104F60001A0701D523699BB93046214602F072FE2B
:104F700070B14FF0FF3070BDA368013B002BA36000
:104F80000BDB236815F8012C1A70236801332360AA
:104F900015F8010B0028EFD116E0A269934209DB56
:104FA000236815F8012C1A70236819780A29EDD1A5
:104FB000304602E0304615F8011C224602F0E4FDBE
:104FC000431C58425841D3E770BD00BF60C4000085
:104FD00080C40000A0C4000003460A4602490868D5
:104FE0001946FFF7A5BF00BF4401001000F000B84C
:104FF0002DE9F8430C4690461E46054618B18369D4
:105000000BB9FFF79FFE3D4B9C4201D16C6808E055
:105010003B4B9C4201D1AC6803E03A4B9C4208BF39
:10502000EC68A38903F48473B3F5847F03D1284625
:105030002146FFF70BFEE76A0FB91D232BE0012E77
:1050400004D0022E2BD056B3162324E02846214646
:10505000FFF7FCFDA28902F4805292B20AB1606DA2
:1050600005E0216A28463346B847411C14D0A3897D
:105070005A0706D56368C01A636B4BB1236CC01A1C
:1050800006E01B0704D5236813B122699B1A184454
:105090008044002603E02B604FF0FF392BE02369AA
:1050A0001BB92846214600F069F928462146FFF73A
:1050B000CDFD81460028EFD12846216A424633467D
:1050C000B8470130E8D0616B41B104F14403994223
:1050D00002D0284600F020FC0023636323690021EE
:1050E0002360A389616023F40263A38104F15C005F
:1050F000082200F0B8F94846BDE8F88360C4000013
:1051000080C40000A0C400002DE9F8438046894611
:1051100000F14804002694B1A5686768013F0CD4EB
:10512000AB89012B07D9B5F90E30013303D04046C6
:105130002946C84706436835F0E72468EBE7304660
:10514000BDE8F8830E4B70B51E460E4C0025E41AE0
:10515000A410A54204D056F8253098470135F8E749
:1051600006F044F9084B094C1E46E41AA410002529
:10517000A54204D056F8253098470135F8E770BDB0
:10518000C4010010C4010010C4010010CC010010C3
:1051900038B5074B05461C68E36B1BB9242000F0AB
:1051A00039F9E0632846E16BBDE8384000F002B809
:1051B000440100102DE9F0410C46804603F076FFD3
:1051C00021460746404603F075FF4669044606F24D
:1051D0006C76B30705D1642296FBF2F302FB1363EE
:1051E0004BB94FF4C87596FBF5F305FB1365B5FA9B
:1051F00085F35B0900E001235E4A302505FB0325AA
:1052000002F0C0FC5C4B1B68F3B17B689E4205D189
:105210003968D8F80030FA6941B90AE0304602F03E
:105220000DFC0028F4D14FF0FF330DE0934208DB72
:1052300001E0934207DABA6B9342ACBF002301232B
:1052400002E0002300E001232362236A3C20012BBB
:105250000CBFF96B396A4FF4616391FBF3F603FB02
:10526000161393FBF0F200FB123061682368891A71
:10527000A2681B1A921B3B2B23606160A26003DDB6
:10528000013161603C3B04E0002B03DA01396160CD
:105290003C33236063683B2B03DD0132A2603C3B5F
:1052A00004E0002B03DA013AA2603C336360A36898
:1052B000172B22DDE269183B0132E261A269A3608B
:1052C0000132062AC8BF0022A261E26823690132C6
:1052D000E26055F823108A4246DD01330C2B08BFEB
:1052E0006369A2EB0102E26005BF01330022236182
:1052F000226104BF6361E26136E0002B34DAE269C7
:105300001833013AE261A269A360013A48BF06225C
:10531000A261E268013AE26032BB2369013B01D439
:1053200023611DE00B23236163695A1E12F0030FF2
:10533000626103F26B7305D1642193FBF1F201FB0F
:1053400012324AB94FF4C87193FBF1F201FB1233E8
:10535000B3FA83F35B0900E0012303F5B673E3615D
:10536000236955F82330E36002F00DFC2046BDE8C8
:10537000F08100BF28C5000084080010F0B58B89BB
:1053800091B09D0706460C4625D4B1F90E100029B0
:1053900008DAA389002513F0800F14BF40274FF4CB
:1053A00080670DE001AA03F063FB0028F1DB029D9A
:1053B0004FF4806705F47045A5F500514D424D410D
:1053C0003046394600F0ECFA60B9A3899A051DD43D
:1053D00043F00203A38104F1470323602361012307
:1053E000636113E00A4BB362A389206043F080033A
:1053F000A381206167614DB13046B4F90E1003F00E
:10540000EBFE18B1A38943F00103A38111B0F0BDF5
:10541000C54C0000024B0146186800F0C1BA00BF3D
:1054200044010010024B0146186800F075BA00BF35
:105430004401001010B5C9B202449042034605D0A1
:105440001C7801308C42F8D1184610BD002010BDE8
:1054500010B5431E0A44914204D011F8014B03F8E1
:10546000014FF8E710BD03460244934202D003F80F
:10547000011BFAE77047000037B5016804463B2975
:1054800011D93C22684602F061FC019A6168009BD8
:10549000002A0B446360BBBF3C3203F1FF33226040
:1054A0002260B8BF636061683B2911D93C2268461D
:1054B00002F04CFC019AA168009B002A0B44A360F7
:1054C000BBBF3C3203F1FF3362606260B8BFA360D0
:1054D000A168172911D91822684602F037FC019AF1
:1054E000E168009B002A0B44E360BBBF183203F164
:1054F000FF33A260A260B8BFE36021690B2911D914
:105500000C22684602F022FC019A6169009B002A85
:105510000B446361BBBF0C3203F1FF332261226194
:10552000B8BF636163699D0712D1642193FBF1F2F7
:1055300001FB123272B903F26C734FF4C87193FB22
:10554000F1F201FB1233002B14BF1C231D2302E0D8
:105550001C2300E01D23E268002A37DCE568002DEB
:105560005CDC21690139216101311CD163690B22A5
:10557000591E88076161226112D1642291FBF2F009
:1055800002FB101171B903F26B734FF4C87293FBF5
:10559000F2F102FB1133002B14BF1C231D2302E088
:1055A0001C2300E01D232269012A0EBF1A461C4954
:1055B00051F822202A44E260D0E799422EDD1846B5
:1055C0000132091A0C2AE160226109D02269E168DE
:1055D000012AF2D0124850F822008142F0DC1DE08E
:1055E000636900215A1C21619107626112D1642014
:1055F00092FBF0F100FB112272B903F26D734FF4CC
:10560000C87193FBF1F201FB1233002B14BF1C2372
:105610001D23DBE71C23D9E71D23D7E703B030BDEB
:10562000F8C400002DE9F047804603F03FFD8146B5
:105630004046FFF721FF98E80C003C2000FB0323C5
:10564000D8F808204FF4616707FB0230D8F8103013
:10565000AE4AD8F80C4052F82320013C012B1444E8
:10566000D8F8143011DD9A070FD1642193FBF1F2C1
:1056700001FB123242B903F26C754FF4C87295FB0C
:10568000F2F102FB115202B9013444F6206103F534
:105690001C5210328A42C8F81C401E4600F231816A
:1056A000462B21DD46218F0714D1642591FBF5F2AD
:1056B00005FB12128AB901F26C774FF4C87297FB9E
:1056C000F2F502FB1572002A40F26D1208BF4FF48A
:1056D000B77204E040F26D1201E04FF4B77201318D
:1056E00099421444DFD143E042D0452199421EDD66
:1056F0008E0714D1642591FBF5F205FB12128AB9CD
:1057000001F26C764FF4C87296FBF2F502FB15625B
:10571000002A40F26D1208BF4FF4B77204E040F265
:105720006D1201E04FF4B772A41A0139DEE7452B80
:10573000A8BF45239D071E4614D1642293FBF2F3B4
:1057400002FB13638BB906F26C714FF4C87391FBC3
:10575000F3F203FB1213002B40F26D1308BF4FF45A
:10576000B77304E040F26D1301E04FF4B773E41A2D
:10577000674F07FB040702F005FA664B1D68002D12
:1057800000F0AA80D8F82030D8F81400012BA8BF68
:1057900001239A46D9F8043000F26C7098420DD17A
:1057A000D9F83820D9F82030D9F83C00D9F81C10A5
:1057B000D51AAF42A1EB000105DA07E002F03EF98D
:1057C0000028EDD17BE0121A974278DBD9F800204F
:1057D00012B18F427BDB01E08F4207DAAF42ACBFF0
:1057E00000250125BAF1000F04DA69E0BAF1000FD3
:1057F00068DB012585EA0A0ABAF1010F60D11B1A9C
:1058000005B95B42D8F8002040461A44C8F8002089
:105810001F44D8F80CA0FFF72FFED8F80C30B3EBDC
:105820000A034DD0012B03DC981CD8BF012301E0F3
:105830004FF0FF33D8F81C201C449B181DD5731E55
:10584000990714D1642193FBF1F201FB12338BB958
:1058500006F26B764FF4C87296FBF2F302FB136606
:10586000002E40F26D1318BF4FF4B67324E04FF4CE
:10587000B67321E040F26D131EE0B20714D164212B
:1058800096FBF1F201FB12628AB906F26C764FF4D4
:10589000C87196FBF1F201FB1266002E40F26D1208
:1058A00008BF4FF4B77204E040F26D1201E04FF40C
:1058B000B7729A42D8BF9B1AC8F81C3000E0554610
:1058C000012D09D1D9F83C0001253E1807E0BAF1B5
:1058D000000F4FF000058DDAD9F820003E1802F0D5
:1058E00052F90434072394FBF3F3C3EBC303E41A24
:1058F00048BF0734C8F82050C8F818403046BDE803
:10590000F0874FF0FF30BDE8F08700BFC8C400004B
:10591000805101008408001030B500293CD051F8B6
:10592000042C0B1F1D49002AB8BF9B180A680C469F
:1059300012B95A600B6030BD93420DD219685818E5
:10594000904201BF5A5852181A60426823605A6048
:1059500030BD994203D80A4651680029F9D114682C
:1059600015199D420AD11B682344D0188842136040
:1059700012D10868034413604B680CE002D90C2371
:10598000036030BD1C681819884201BF0868496867
:10599000001918605960536030BD00BF80080010C6
:1059A00070B5CC1C24F0030408340C2C38BF0C2434
:1059B000002C064603DA0C233360002070BD8C42B5
:1059C000F9D3204A136810461946A1B10A68121B80
:1059D0000ED40B2A03D90A608B188C501FE08B421F
:1059E0000BBF5A684A6802605A6018BF0B4616E03F
:1059F0000B464968E9E7144D2B681BB9304601F0A6
:105A00002BF828603046214601F026F8421C034658
:105A1000D1D0C51C25F0030585420AD11C6003F1D5
:105A20000B001A1D20F00700821A0AD0514299502B
:105A300070BD3046E91A01F00FF80130BBD02B469B
:105A4000ECE770BD800800107C080010936810B56A
:105A5000013B002B936009DA9469A34202DBCBB2CD
:105A60000A2B03D1BDE8104002F08EB81368581C11
:105A700010601970C8B210BDF8B506460F4614463E
:105A8000D518AC4208D0304614F8011B3A46FFF74F
:105A9000DDFF431CF5D100E00020F8BD2DE9F04307
:105AA0009DB00D4690460393064618B183690BB925
:105AB000FFF748F9754B9D4201D1756808E0744BBA
:105AC0009D4201D1B56803E0724B9D4208BFF56865
:105AD000AB891C070AD52B6943B100230993202306
